:101E000001C097C011248FE592E09EBF8DBF84B7BB
:101E1000882361F0982F9A70923041F081FF02C0C0
:101E200097EF94BF282E80E09FD0EAC082E08BB964
:101E300088E18AB986E880BD87E089B98EE094D0D0
:101E40008CD0813459F489D0182F92D01238E1F017
:101E5000113809F464C083E07CD068C0823411F486
:101E600084E103C0853419F485E08AD05FC08535EC
:101E700039F473D0C82F71D0D82FCC0FDD1F55C0C7
:101E8000863521F484E07CD080E0E6CF843681F58D
:101E900064D063D0182F61D0D82E012F90E6E92EA0
:101EA000F12C5BD0F70181937F010150D1F760D015
:101EB000F5E4DF1201C0FFCF40E050E063E0CE0167
:101EC00038D07E0180E6C82ED12CF6014191519187
:101ED0006F0161E0C7012DD01250F2E0EF0EF11C4E
:101EE0001111F3CF40E050E065E0CE0122D01EC0DA
:101EF000843771F432D031D0F82E2FD039D08E0102
:101F0000F80185918F0125D0FA94F110F9CF0EC018
:101F1000853739F42DD08EE11CD083E91AD088E0C2
:101F20009BCF813511F488E01FD022D080E111D001
:101F300087CFFC010A0167BFE895112407B600FCB2
:101F4000FDCF667029F0452B19F481E187BFE89534
:101F500008955D9BFECF8CB908955F9BFECF5C9981
:101F600001C0A8958CB1089598E191BD81BD0895F7
:101F7000F4DF803219F088E0F7DFFFCF84E1E9CFAA
:0E1F8000CF93C82FEADFC150E9F7CF91F1CF20
:021FFE000008D9
:0400000300001E00DB
:00000001FF
